:100000000C9463000C948B000C948B000C948B006C
:100010000C948B000C948B000C948B000C9441037B
:100020000C948B000C948B000C948B000C948B0024
:100030000C948B000C948B000C948B000C948B0014
:100040000C94F7020C948B000C94C3030C949D0346
:100050000C948B000C948B000C948B000C948B00F4
:100060000C948B000C948B000200000000240027ED
:10007000002A0000000000250028002B00000000DE
:1000800000230026002900040404040404040402DC
:100090000202020202030303030303010204081025
:1000A00020408001020408102001020408102000F2
:1000B0000000080002010000030407000000000027
:1000C00000000000550611241FBECFEFD8E0DEBFB0
:1000D000CDBF11E0A0E0B1E0E4E1FDE002C0059099
:1000E0000D92AC37B107D9F722E0ACE7B1E001C01F
:1000F0001D92AF33B207E1F710E0C3E6D0E004C0D1
:100100002197FE010E948206C236D107C9F70E94DC
:10011000F5030C9488060C940000833081F028F4D9
:10012000813099F08230A9F008958730A9F08830A5
:10013000C9F08430B1F4809180008F7D03C080913C
:1001400080008F7780938000089584B58F7784BD79
:10015000089584B58F7DFBCF8091B0008F77809319
:10016000B00008958091B0008F7DF9CFCF93DF93D9
:10017000282F30E0F901E155FF4F8491F901E55650
:10018000FF4FD491F901E957FF4FC491CC23A1F05F
:1001900081110E948D00EC2FF0E0EE0FFF1FE3585D
:1001A000FF4FA591B491EC91ED2381E090E009F42B
:1001B00080E0DF91CF91089580E090E0FACF1F9327
:1001C000CF93DF93282F30E0F901E155FF4F849161
:1001D000F901E556FF4FD491F901E957FF4FC4915A
:1001E000CC23A9F0162F81110E948D00EC2FF0E096
:1001F000EE0FFF1FED58FF4FA591B4918FB7F89404
:10020000EC91111108C0D095DE23DC938FBFDF91F4
:10021000CF911F910895DE2BF8CFCF93DF9390E01D
:10022000FC01E556FF4F249189579F4FFC018491B3
:100230008823D1F090E0880F991FFC01E759FF4F08
:10024000A591B491FC01ED58FF4FC591D491623056
:1002500071F49FB7F8943C91822F809583238C93FF
:10026000E8812E2B28839FBFDF91CF9108958FB710
:10027000F894EC912E2B2C938FBFF6CF3FB7F894C8
:1002800080919E0190919F01A091A001B091A10148
:1002900026B5A89B05C02F3F19F00196A11DB11DE1
:1002A0003FBFBA2FA92F982F8827BC01CD01620F1D
:1002B000711D811D911D42E0660F771F881F991FD8
:1002C0004A95D1F708958F929F92AF92BF92CF92A5
:1002D000DF92EF92FF924B015C010E943E016B01A5
:1002E0007C010E943E016C197D098E099F09683EC0
:1002F000734081059105A8F321E0821A9108A108B5
:10030000B10888EEC80E83E0D81EE11CF11C8114F0
:100310009104A104B10429F7FF90EF90DF90CF90F2
:10032000BF90AF909F908F9008952FB7F8946091F1
:100330009A0170919B0180919C0190919D012FBF2A
:1003400008959091000189130BC0E8E6F0E0E49174
:100350009FEF90930001E13049F028F0E23061F026
:1003600060E00C94DF0010926E00FACF90916F0065
:100370009D7F90936F00F4CF909170009D7F90933C
:10038000700091E09093B0009091B100987F9460DC
:100390009093B1001092B300E3CFAF92BF92CF928F
:1003A000DF92EF92FF920F931F93CF93DF936C0135
:1003B0007B018B01040F151FEB015E01AE18BF0816
:1003C000C017D10759F06991D601ED91FC910190C8
:1003D000F081E02DC6010995892B79F7C501DF91E0
:1003E000CF911F910F91FF90EF90DF90CF90BF9032
:1003F000AF900895FC01538D448D252F30E0842F5C
:1004000090E0821B930B541710F0CF96089501973C
:100410000895FC01918D828D981761F0A28DAE0F29
:10042000BF2FB11D5D968C91928D9F5F9F73928FB0
:1004300090E008958FEF9FEF0895FC01918D828DDC
:10044000981731F0828DE80FF11D858D90E00895A9
:100450008FEF9FEF0895FC01918D228D892F90E001
:10046000805C9F4F821B91098F739927089582EAC0
:1004700091E00E942B0221E0892B09F420E0822FD9
:10048000089580E090E0892B29F00E9437028111C5
:100490000C9400000895FC01A48DA80FB92FB11D84
:1004A000A35ABF4F2C91848D90E001968F739927AA
:1004B000848FA689B7892C93A089B1898C91837088
:1004C00080648C93938D848D981306C00288F38981
:1004D000E02D80818F7D80830895EF92FF920F93AE
:1004E0001F93CF93DF93EC0181E0888F9B8D8C8DE0
:1004F00098131AC0E889F989808185FF15C09FB7D4
:10050000F894EE89FF896083E889F9898081837096
:10051000806480839FBF81E090E0DF91CF911F9145
:100520000F91FF90EF900895F62E0B8D10E00F5F66
:100530001F4F0F731127E02E8C8D8E110CC00FB63C
:1005400007FCFACFE889F989808185FFF5CFCE01D4
:100550000E944B02F1CFEB8DEC0FFD2FF11DE35A02
:10056000FF4FF0829FB7F8940B8FEA89FB89808157
:100570008062CFCFCF93DF93EC01888D8823B9F0D1
:10058000AA89BB89E889F9898C9185FD03C080819E
:1005900086FD0DC00FB607FCF7CF8C9185FFF2CF1B
:1005A000808185FFEDCFCE010E944B02E9CFDF9124
:1005B000CF910895CF93DF93FC0101900020E9F7DC
:1005C0003197AF01481B590BBC0182EA91E00E94B0
:1005D000CD01EC0142E050E063E171E082EA91E09C
:1005E0000E94CD018C0F9D1FDF91CF9108951F9226
:1005F0000F920FB60F9211242F933F938F939F93D7
:10060000AF93BF9380919A0190919B01A0919C011F
:10061000B0919D013091990123E0230F2D3758F5BA
:100620000196A11DB11D2093990180939A01909389
:100630009B01A0939C01B0939D0180919E0190919C
:100640009F01A091A001B091A1010196A11DB11D32
:1006500080939E0190939F01A093A001B093A1016C
:10066000BF91AF919F918F913F912F910F900FBEAE
:100670000F901F90189526E8230F0296A11DB11D1B
:10068000D2CF1F920F920FB60F9211242F933F9348
:100690004F935F936F937F938F939F93AF93BF938A
:1006A000EF93FF938091810190918201A09183014A
:1006B000B0918401892B8A2B8B2BD1F190917C01F5
:1006C000E0917D01F0917E01808189278083809176
:1006D000810190918201A0918301B091840118164B
:1006E00019061A061B069CF48091810190918201E3
:1006F000A0918301B09184010197A109B109809370
:10070000810190938201A0938301B0938401FF91B2
:10071000EF91BF91AF919F918F917F916F915F9179
:100720004F913F912F910F900FBE0F901F901895F2
:10073000809100010E94A101EACF1F920F920FB693
:100740000F9211242F933F934F935F936F937F9357
:100750008F939F93AF93BF93EF93FF9382EA91E0C0
:100760000E944B02FF91EF91BF91AF919F918F91AA
:100770007F916F915F914F913F912F910F900FBE9D
:100780000F901F9018951F920F920FB60F92112481
:100790002F938F939F93EF93FF93E091B201F0918A
:1007A000B3018081E091B801F091B90182FD1BC0D5
:1007B00090818091BB018F5F8F732091BC01821764
:1007C00041F0E091BB01F0E0EE55FE4F958F809334
:1007D000BB01FF91EF919F918F912F910F900FBED1
:1007E0000F901F9018958081F4CF789484B5826023
:1007F00084BD84B5816084BD85B5826085BD85B5C5
:10080000816085BD80916E00816080936E00109242
:1008100081008091810082608093810080918100BD
:10082000816080938100809180008160809380004E
:100830008091B10084608093B1008091B0008160AC
:100840008093B00080917A00846080937A008091D8
:100850007A00826080937A0080917A008160809330
:100860007A0080917A00806880937A001092C100AB
:10087000E091B201F091B30182E08083E091AE019A
:10088000F091AF011082E091B001F091B1018FECD5
:1008900080831092BA01E091B601F091B70186E031
:1008A0008083E091B401F091B50180818061808303
:1008B000E091B401F091B501808188608083E0917E
:1008C000B401F091B501808180688083E091B4012A
:1008D000F091B50180818F7D808361E086E00E9488
:1008E0000D0161E085E00E940D0162E082E00E945E
:1008F0000D0162E083E00E940D0144E0842E47E494
:10090000942E5CE8A52E50E0B52E00EA10E0CC2431
:10091000CA94DC2C760130E0232E30E0332E82E0C6
:100920000E94B600892B09F0BFC08091950190917B
:100930009601A0919701B0919801892B8A2B8B2B5E
:1009400051F40E94950160939501709396018093F4
:100950009701909398010E949501409095015090C5
:100960009601609097017090980164197509860945
:1009700097096039714081059105A8F18091910135
:1009800090919201A0919301B0919401892B8A2BAF
:100990008B2B49F586E191E00E94DA0261E086E066
:1009A0000E94DF0068EC70E080E090E00E9463014C
:1009B00060E086E00E94DF000E9495016093910153
:1009C00070939201809393019093940110929501FA
:1009D00010929601109297011092980182E00E9465
:1009E000B600892BD9F383E00E94B600892B09F069
:1009F00053C180918D0190918E01A0918F01B09192
:100A00009001892B8A2B8B2B51F40E9495016093C6
:100A10008D0170938E0180938F01909390010E94BD
:100A2000950140908D0150908E0160908F017090E3
:100A3000900164197509860997096039714081052B
:100A4000910530F140909101509092016090930196
:100A500070909401411451046104710471F583E3B1
:100A600091E00E94DA02109291011092920110928C
:100A700093011092940110928D0110928E011092A8
:100A80008F011092900183E00E94B600892BD9F368
:100A90002114310409F443CF0E943702882309F45A
:100AA0003ECF0E94000037CF109295011092960120
:100AB000109297011092980196CF0E9495016419A7
:100AC000750986099709653C79408105910538F6D5
:100AD00080E691E00E94DA0261E086E00E94DF0099
:100AE00080910001853031F5E8E6F0E0C491C7FD62
:100AF000BDC061E085E00E940D01CC2309F489C0EE
:100B0000C23009F09AC08091B100887F85608093DF
:100B1000B1008DE88093B300C0928101D092820130
:100B2000E0928301F0928401809170008260809352
:100B300070009CC08F3F09F099C085E08093000150
:100B4000E8E6F0E0C491CF3F09F490C0C13019F15C
:100B500050F0C23009F43CC0C7FD88C061E085E0B8
:100B60000E940D01CDCF14BC15BC84B5826084BD3C
:100B700085B5816085BDF5018491E82FF0E0EE0F29
:100B8000FF1FED58FF4F85919491F8018491809358
:100B90008001C0E0AECF1092800010928100809161
:100BA00081008860809381008091810081608093C2
:100BB0008100F5018491E82FF0E0EE0FFF1FED5862
:100BC000FF4F85919491F801849180937F0191CF9B
:100BD0001092B0001092B1008091B00082608093BA
:100BE000B0008091B10081608093B100F5018491E3
:100BF000E82FF0E0EE0FFF1FED58FF4F8591949125
:100C000090937E0180937D01F801849180937C0113
:100C100070CF85B5887F846085BD86E487BDC0922E
:100C20008901D0928A01E0928B01F0928C0180912F
:100C30006E00826080936E0019C0C13029F58091EA
:100C40008100887F816080938100909289008092EA
:100C50008800C0928501D0928601E0928701F092CF
:100C6000880180916F00826080936F0060ED77E073
:100C700080E090E00E94630185E00E94A10160E0B5
:100C800086E00E94DF00EFCEC23021F0C111EECF2E
:100C900084E0C4CF84E03ECF10928D0110928E018B
:100CA00010928F0110929001F3CEE2EAF1E01382EC
:100CB000128288EE93E0A0E0B0E084839583A6835F
:100CC000B78385E091E09183808385EC90E0958700
:100CD000848784EC90E09787868780EC90E0918B06
:100CE000808B81EC90E0938B828B82EC90E0958BF3
:100CF000848B86EC90E0978B868B118E128E138EF0
:100D0000148E0895EE0FFF1F0590F491E02D0994C5
:040D1000F894FFCF85
:100D1400FF000000006D02CD01FA01BA022B0209A6
:100D2400021D020D0A00427574746F6E2041204842
:100D3400656C643A2053797374656D2041726D65F6
:100D44006421004572726F723A2054726967676554
:100D540072204661696C6564202854696D656F75FD
:100D640074206F72204E6F742041726D6564290087
:100D7400537563636573733A205061796C6F616472
:0C0D84002052656C6561736564210000FD
:00000001FF
